{
  "_format": "hh-sol-artifact-1",
  "contractName": "RealEstate",
  "sourceName": "contracts/RealState.sol",
  "abi": [
    {
      "anonymous": false,
      "inputs": [
        {
          "indexed": true,
          "internalType": "uint256",
          "name": "id",
          "type": "uint256"
        },
        {
          "indexed": true,
          "internalType": "address",
          "name": "owner",
          "type": "address"
        },
        {
          "indexed": false,
          "internalType": "uint256",
          "name": "price",
          "type": "uint256"
        }
      ],
      "name": "PropertyListed",
      "type": "event"
    },
    {
      "anonymous": false,
      "inputs": [
        {
          "indexed": true,
          "internalType": "uint256",
          "name": "id",
          "type": "uint256"
        },
        {
          "indexed": true,
          "internalType": "address",
          "name": "oldOwner",
          "type": "address"
        },
        {
          "indexed": true,
          "internalType": "address",
          "name": "newOwner",
          "type": "address"
        },
        {
          "indexed": false,
          "internalType": "uint256",
          "name": "price",
          "type": "uint256"
        }
      ],
      "name": "PropertyResold",
      "type": "event"
    },
    {
      "anonymous": false,
      "inputs": [
        {
          "indexed": true,
          "internalType": "uint256",
          "name": "id",
          "type": "uint256"
        },
        {
          "indexed": true,
          "internalType": "address",
          "name": "oldOwner",
          "type": "address"
        },
        {
          "indexed": true,
          "internalType": "address",
          "name": "newOwner",
          "type": "address"
        },
        {
          "indexed": false,
          "internalType": "uint256",
          "name": "price",
          "type": "uint256"
        }
      ],
      "name": "PropertySold",
      "type": "event"
    },
    {
      "anonymous": false,
      "inputs": [
        {
          "indexed": true,
          "internalType": "uint256",
          "name": "productId",
          "type": "uint256"
        },
        {
          "indexed": true,
          "internalType": "address",
          "name": "reviewer",
          "type": "address"
        },
        {
          "indexed": false,
          "internalType": "uint8",
          "name": "rating",
          "type": "uint8"
        },
        {
          "indexed": false,
          "internalType": "string",
          "name": "comment",
          "type": "string"
        }
      ],
      "name": "ReviewAdded",
      "type": "event"
    },
    {
      "anonymous": false,
      "inputs": [
        {
          "indexed": true,
          "internalType": "uint256",
          "name": "productId",
          "type": "uint256"
        },
        {
          "indexed": true,
          "internalType": "uint256",
          "name": "reviewIndex",
          "type": "uint256"
        },
        {
          "indexed": true,
          "internalType": "address",
          "name": "liker",
          "type": "address"
        },
        {
          "indexed": false,
          "internalType": "uint256",
          "name": "likes",
          "type": "uint256"
        }
      ],
      "name": "ReviewLiked",
      "type": "event"
    },
    {
      "inputs": [
        {
          "internalType": "uint256",
          "name": "productId",
          "type": "uint256"
        },
        {
          "internalType": "uint8",
          "name": "rating",
          "type": "uint8"
        },
        {
          "internalType": "string",
          "name": "comment",
          "type": "string"
        },
        {
          "internalType": "address",
          "name": "user",
          "type": "address"
        }
      ],
      "name": "addReview",
      "outputs": [],
      "stateMutability": "nonpayable",
      "type": "function"
    },
    {
      "inputs": [
        {
          "internalType": "uint256",
          "name": "id",
          "type": "uint256"
        },
        {
          "internalType": "address",
          "name": "buyer",
          "type": "address"
        }
      ],
      "name": "buyProperty",
      "outputs": [],
      "stateMutability": "payable",
      "type": "function"
    },
    {
      "inputs": [],
      "name": "getAllProperties",
      "outputs": [
        {
          "components": [
            {
              "internalType": "uint256",
              "name": "productID",
              "type": "uint256"
            },
            {
              "internalType": "address",
              "name": "owner",
              "type": "address"
            },
            {
              "internalType": "uint256",
              "name": "price",
              "type": "uint256"
            },
            {
              "internalType": "string",
              "name": "propertyTitle",
              "type": "string"
            },
            {
              "internalType": "string",
              "name": "category",
              "type": "string"
            },
            {
              "internalType": "string",
              "name": "images",
              "type": "string"
            },
            {
              "internalType": "string",
              "name": "propertyAddress",
              "type": "string"
            },
            {
              "internalType": "string",
              "name": "description",
              "type": "string"
            },
            {
              "internalType": "address[]",
              "name": "reviewers",
              "type": "address[]"
            },
            {
              "internalType": "string[]",
              "name": "reviews",
              "type": "string[]"
            }
          ],
          "internalType": "struct RealEstate.Property[]",
          "name": "",
          "type": "tuple[]"
        }
      ],
      "stateMutability": "view",
      "type": "function"
    },
    {
      "inputs": [],
      "name": "getHighestRatedProduct",
      "outputs": [
        {
          "internalType": "uint256",
          "name": "",
          "type": "uint256"
        }
      ],
      "stateMutability": "view",
      "type": "function"
    },
    {
      "inputs": [
        {
          "internalType": "uint256",
          "name": "productId",
          "type": "uint256"
        }
      ],
      "name": "getProductReviews",
      "outputs": [
        {
          "components": [
            {
              "internalType": "address",
              "name": "reviewer",
              "type": "address"
            },
            {
              "internalType": "uint256",
              "name": "productId",
              "type": "uint256"
            },
            {
              "internalType": "uint8",
              "name": "rating",
              "type": "uint8"
            },
            {
              "internalType": "string",
              "name": "comment",
              "type": "string"
            },
            {
              "internalType": "uint256",
              "name": "likes",
              "type": "uint256"
            }
          ],
          "internalType": "struct RealEstate.Review[]",
          "name": "",
          "type": "tuple[]"
        }
      ],
      "stateMutability": "view",
      "type": "function"
    },
    {
      "inputs": [
        {
          "internalType": "uint256",
          "name": "id",
          "type": "uint256"
        }
      ],
      "name": "getProperty",
      "outputs": [
        {
          "internalType": "uint256",
          "name": "",
          "type": "uint256"
        },
        {
          "internalType": "address",
          "name": "",
          "type": "address"
        },
        {
          "internalType": "uint256",
          "name": "",
          "type": "uint256"
        },
        {
          "internalType": "string",
          "name": "",
          "type": "string"
        },
        {
          "internalType": "string",
          "name": "",
          "type": "string"
        },
        {
          "internalType": "string",
          "name": "",
          "type": "string"
        },
        {
          "internalType": "string",
          "name": "",
          "type": "string"
        },
        {
          "internalType": "string",
          "name": "",
          "type": "string"
        }
      ],
      "stateMutability": "view",
      "type": "function"
    },
    {
      "inputs": [
        {
          "internalType": "address",
          "name": "user",
          "type": "address"
        }
      ],
      "name": "getUserProperties",
      "outputs": [
        {
          "components": [
            {
              "internalType": "uint256",
              "name": "productID",
              "type": "uint256"
            },
            {
              "internalType": "address",
              "name": "owner",
              "type": "address"
            },
            {
              "internalType": "uint256",
              "name": "price",
              "type": "uint256"
            },
            {
              "internalType": "string",
              "name": "propertyTitle",
              "type": "string"
            },
            {
              "internalType": "string",
              "name": "category",
              "type": "string"
            },
            {
              "internalType": "string",
              "name": "images",
              "type": "string"
            },
            {
              "internalType": "string",
              "name": "propertyAddress",
              "type": "string"
            },
            {
              "internalType": "string",
              "name": "description",
              "type": "string"
            },
            {
              "internalType": "address[]",
              "name": "reviewers",
              "type": "address[]"
            },
            {
              "internalType": "string[]",
              "name": "reviews",
              "type": "string[]"
            }
          ],
          "internalType": "struct RealEstate.Property[]",
          "name": "",
          "type": "tuple[]"
        }
      ],
      "stateMutability": "view",
      "type": "function"
    },
    {
      "inputs": [
        {
          "internalType": "address",
          "name": "user",
          "type": "address"
        }
      ],
      "name": "getUserReviews",
      "outputs": [
        {
          "components": [
            {
              "internalType": "address",
              "name": "reviewer",
              "type": "address"
            },
            {
              "internalType": "uint256",
              "name": "productId",
              "type": "uint256"
            },
            {
              "internalType": "uint8",
              "name": "rating",
              "type": "uint8"
            },
            {
              "internalType": "string",
              "name": "comment",
              "type": "string"
            },
            {
              "internalType": "uint256",
              "name": "likes",
              "type": "uint256"
            }
          ],
          "internalType": "struct RealEstate.Review[]",
          "name": "",
          "type": "tuple[]"
        }
      ],
      "stateMutability": "view",
      "type": "function"
    },
    {
      "inputs": [
        {
          "internalType": "uint256",
          "name": "productId",
          "type": "uint256"
        },
        {
          "internalType": "uint256",
          "name": "reviewIndex",
          "type": "uint256"
        },
        {
          "internalType": "address",
          "name": "user",
          "type": "address"
        }
      ],
      "name": "likeReview",
      "outputs": [],
      "stateMutability": "nonpayable",
      "type": "function"
    },
    {
      "inputs": [
        {
          "internalType": "address",
          "name": "owner",
          "type": "address"
        },
        {
          "internalType": "uint256",
          "name": "price",
          "type": "uint256"
        },
        {
          "internalType": "string",
          "name": "_propertyTitle",
          "type": "string"
        },
        {
          "internalType": "string",
          "name": "_category",
          "type": "string"
        },
        {
          "internalType": "string",
          "name": "_images",
          "type": "string"
        },
        {
          "internalType": "string",
          "name": "_propertyAddress",
          "type": "string"
        },
        {
          "internalType": "string",
          "name": "_description",
          "type": "string"
        }
      ],
      "name": "listProperty",
      "outputs": [
        {
          "internalType": "uint256",
          "name": "",
          "type": "uint256"
        }
      ],
      "stateMutability": "nonpayable",
      "type": "function"
    },
    {
      "inputs": [],
      "name": "propertyIndex",
      "outputs": [
        {
          "internalType": "uint256",
          "name": "",
          "type": "uint256"
        }
      ],
      "stateMutability": "view",
      "type": "function"
    },
    {
      "inputs": [],
      "name": "reviewsCounter",
      "outputs": [
        {
          "internalType": "uint256",
          "name": "",
          "type": "uint256"
        }
      ],
      "stateMutability": "view",
      "type": "function"
    },
    {
      "inputs": [
        {
          "internalType": "address",
          "name": "owner",
          "type": "address"
        },
        {
          "internalType": "uint256",
          "name": "productId",
          "type": "uint256"
        },
        {
          "internalType": "uint256",
          "name": "price",
          "type": "uint256"
        }
      ],
      "name": "updatePrice",
      "outputs": [
        {
          "internalType": "string",
          "name": "",
          "type": "string"
        }
      ],
      "stateMutability": "nonpayable",
      "type": "function"
    },
    {
      "inputs": [
        {
          "internalType": "address",
          "name": "owner",
          "type": "address"
        },
        {
          "internalType": "uint256",
          "name": "productId",
          "type": "uint256"
        },
        {
          "internalType": "string",
          "name": "_propertyTitle",
          "type": "string"
        },
        {
          "internalType": "string",
          "name": "_category",
          "type": "string"
        },
        {
          "internalType": "string",
          "name": "_images",
          "type": "string"
        },
        {
          "internalType": "string",
          "name": "_propertyAddress",
          "type": "string"
        },
        {
          "internalType": "string",
          "name": "_description",
          "type": "string"
        }
      ],
      "name": "updateProperty",
      "outputs": [
        {
          "internalType": "uint256",
          "name": "",
          "type": "uint256"
        }
      ],
      "stateMutability": "nonpayable",
      "type": "function"
    }
  ],
  "bytecode": "0x608060405234801561001057600080fd5b50612748806100206000396000f3fe6080604052600436106100dd5760003560e01c8063844ce5621161007f578063dc035e6d11610059578063dc035e6d1461023c578063e2fc6b951461025c578063e57d6fb71461027c578063f56720b5146102a957600080fd5b8063844ce562146101fc5780639e92a69414610212578063a3007b1f1461022757600080fd5b80633b3bfa15116100bb5780633b3bfa15146101795780633d51402c146101a757806346a4237b146101bc57806370789308146101dc57600080fd5b8063060a3e61146100e257806318d0e8b21461011857806332665ffb14610145575b600080fd5b3480156100ee57600080fd5b506101026100fd366004611fa3565b6102bf565b60405161010f91906120ab565b60405180910390f35b34801561012457600080fd5b50610138610133366004611fa3565b610882565b60405161010f91906121e8565b34801561015157600080fd5b50610165610160366004612280565b610b4e565b60405161010f989796959493929190612299565b34801561018557600080fd5b506101996101943660046123cd565b610ffb565b60405190815260200161010f565b3480156101b357600080fd5b506101026110df565b3480156101c857600080fd5b506101386101d7366004612280565b6115f5565b3480156101e857600080fd5b506101996101f73660046123cd565b611731565b34801561020857600080fd5b5061019960055481565b6102256102203660046124b9565b61189e565b005b34801561023357600080fd5b506101996119c2565b34801561024857600080fd5b506102256102573660046124e5565b611a49565b34801561026857600080fd5b5061022561027736600461251a565b611ae2565b34801561028857600080fd5b5061029c6102973660046125c0565b611d74565b60405161010f91906125f3565b3480156102b557600080fd5b5061019960015481565b600154606090600080805b8381101561032d576001600160a01b0386166000806102ea84600161261c565b81526020810191909152604001600020600101546001600160a01b0316141561031b5761031860018461261c565b92505b8061032581612634565b9150506102ca565b5060008267ffffffffffffffff8111156103495761034961232a565b60405190808252806020026020018201604052801561038257816020015b61036f611e1e565b8152602001906001900390816103675790505b50905060005b84811015610878576001600160a01b0387166000806103a884600161261c565b81526020810191909152604001600020600101546001600160a01b031614156108665760006103d882600161261c565b600081815260208181526040918290208251610140810184528154815260018201546001600160a01b0316928101929092526002810154928201929092526003820180549394509192909183916060840191906104349061264f565b80601f01602080910402602001604051908101604052809291908181526020018280546104609061264f565b80156104ad5780601f10610482576101008083540402835291602001916104ad565b820191906000526020600020905b81548152906001019060200180831161049057829003601f168201915b505050505081526020016004820180546104c69061264f565b80601f01602080910402602001604051908101604052809291908181526020018280546104f29061264f565b801561053f5780601f106105145761010080835404028352916020019161053f565b820191906000526020600020905b81548152906001019060200180831161052257829003601f168201915b505050505081526020016005820180546105589061264f565b80601f01602080910402602001604051908101604052809291908181526020018280546105849061264f565b80156105d15780601f106105a6576101008083540402835291602001916105d1565b820191906000526020600020905b8154815290600101906020018083116105b457829003601f168201915b505050505081526020016006820180546105ea9061264f565b80601f01602080910402602001604051908101604052809291908181526020018280546106169061264f565b80156106635780601f1061063857610100808354040283529160200191610663565b820191906000526020600020905b81548152906001019060200180831161064657829003601f168201915b5050505050815260200160078201805461067c9061264f565b80601f01602080910402602001604051908101604052809291908181526020018280546106a89061264f565b80156106f55780601f106106ca576101008083540402835291602001916106f5565b820191906000526020600020905b8154815290600101906020018083116106d857829003601f168201915b505050505081526020016008820180548060200260200160405190810160405280929190818152602001828054801561075757602002820191906000526020600020905b81546001600160a01b03168152600190910190602001808311610739575b5050505050815260200160098201805480602002602001604051908101604052809291908181526020016000905b828210156108315783829060005260206000200180546107a49061264f565b80601f01602080910402602001604051908101604052809291908181526020018280546107d09061264f565b801561081d5780601f106107f25761010080835404028352916020019161081d565b820191906000526020600020905b81548152906001019060200180831161080057829003601f168201915b505050505081526020019060010190610785565b505050508152505084868151811061084b5761084b61268a565b602090810291909101015261086160018661261c565b945050505b8061087081612634565b915050610388565b5095945050505050565b6001600160a01b0381166000908152600360205260408120546060918167ffffffffffffffff8111156108b7576108b761232a565b60405190808252806020026020018201604052801561090f57816020015b6040805160a08101825260008082526020808301829052928201819052606080830152608082015282526000199092019101816108d55790505b50905060005b6001600160a01b038516600090815260036020526040902054811015610b46576001600160a01b038516600090815260036020526040812080548390811061095f5761095f61268a565b90600052602060002001549050600060026000838152602001908152602001600020805480602002602001604051908101604052809291908181526020016000905b82821015610a9d5760008481526020908190206040805160a0810182526005860290920180546001600160a01b03168352600181015493830193909352600283015460ff1690820152600382018054919291606084019190610a029061264f565b80601f0160208091040260200160405190810160405280929190818152602001828054610a2e9061264f565b8015610a7b5780601f10610a5057610100808354040283529160200191610a7b565b820191906000526020600020905b815481529060010190602001808311610a5e57829003601f168201915b50505050508152602001600482015481525050815260200190600101906109a1565b50505050905060005b8151811015610b3057876001600160a01b0316828281518110610acb57610acb61268a565b6020026020010151600001516001600160a01b03161415610b1e57818181518110610af857610af861268a565b6020026020010151858581518110610b1257610b1261268a565b60200260200101819052505b80610b2881612634565b915050610aa6565b5050508080610b3e90612634565b915050610915565b509392505050565b6000818152602081815260408083208151610140810183528154815260018201546001600160a01b03169381019390935260028101549183019190915260038101805484938493606093849384938493849389938386019190610bb09061264f565b80601f0160208091040260200160405190810160405280929190818152602001828054610bdc9061264f565b8015610c295780601f10610bfe57610100808354040283529160200191610c29565b820191906000526020600020905b815481529060010190602001808311610c0c57829003601f168201915b50505050508152602001600482018054610c429061264f565b80601f0160208091040260200160405190810160405280929190818152602001828054610c6e9061264f565b8015610cbb5780601f10610c9057610100808354040283529160200191610cbb565b820191906000526020600020905b815481529060010190602001808311610c9e57829003601f168201915b50505050508152602001600582018054610cd49061264f565b80601f0160208091040260200160405190810160405280929190818152602001828054610d009061264f565b8015610d4d5780601f10610d2257610100808354040283529160200191610d4d565b820191906000526020600020905b815481529060010190602001808311610d3057829003601f168201915b50505050508152602001600682018054610d669061264f565b80601f0160208091040260200160405190810160405280929190818152602001828054610d929061264f565b8015610ddf5780601f10610db457610100808354040283529160200191610ddf565b820191906000526020600020905b815481529060010190602001808311610dc257829003601f168201915b50505050508152602001600782018054610df89061264f565b80601f0160208091040260200160405190810160405280929190818152602001828054610e249061264f565b8015610e715780601f10610e4657610100808354040283529160200191610e71565b820191906000526020600020905b815481529060010190602001808311610e5457829003601f168201915b5050505050815260200160088201805480602002602001604051908101604052809291908181526020018280548015610ed357602002820191906000526020600020905b81546001600160a01b03168152600190910190602001808311610eb5575b5050505050815260200160098201805480602002602001604051908101604052809291908181526020016000905b82821015610fad578382906000526020600020018054610f209061264f565b80601f0160208091040260200160405190810160405280929190818152602001828054610f4c9061264f565b8015610f995780601f10610f6e57610100808354040283529160200191610f99565b820191906000526020600020905b815481529060010190602001808311610f7c57829003601f168201915b505050505081526020019060010190610f01565b50505050815250509050806000015181602001518260400151836060015184608001518560a001518660c001518760e001519850985098509850985098509850985050919395975091939597565b600086815260208190526040812060018101546001600160a01b038a81169116146110645760405162461bcd60e51b81526020600482015260146024820152732cb7ba9030b932903737ba1030b71037bbb732b960611b60448201526064015b60405180910390fd5b865161107990600383019060208a0190611e7a565b50855161108f9060048301906020890190611e7a565b5084516110a59060058301906020880190611e7a565b5083516110bb9060068301906020870190611e7a565b5082516110d19060078301906020860190611e7a565b509698975050505050505050565b6001546060906000808267ffffffffffffffff8111156111015761110161232a565b60405190808252806020026020018201604052801561113a57816020015b611127611e1e565b81526020019060019003908161111f5790505b50905060005b83811015610b4657600061115582600161261c565b600081815260208181526040918290208251610140810184528154815260018201546001600160a01b0316928101929092526002810154928201929092526003820180549394509192909183916060840191906111b19061264f565b80601f01602080910402602001604051908101604052809291908181526020018280546111dd9061264f565b801561122a5780601f106111ff5761010080835404028352916020019161122a565b820191906000526020600020905b81548152906001019060200180831161120d57829003601f168201915b505050505081526020016004820180546112439061264f565b80601f016020809104026020016040519081016040528092919081815260200182805461126f9061264f565b80156112bc5780601f10611291576101008083540402835291602001916112bc565b820191906000526020600020905b81548152906001019060200180831161129f57829003601f168201915b505050505081526020016005820180546112d59061264f565b80601f01602080910402602001604051908101604052809291908181526020018280546113019061264f565b801561134e5780601f106113235761010080835404028352916020019161134e565b820191906000526020600020905b81548152906001019060200180831161133157829003601f168201915b505050505081526020016006820180546113679061264f565b80601f01602080910402602001604051908101604052809291908181526020018280546113939061264f565b80156113e05780601f106113b5576101008083540402835291602001916113e0565b820191906000526020600020905b8154815290600101906020018083116113c357829003601f168201915b505050505081526020016007820180546113f99061264f565b80601f01602080910402602001604051908101604052809291908181526020018280546114259061264f565b80156114725780601f1061144757610100808354040283529160200191611472565b820191906000526020600020905b81548152906001019060200180831161145557829003601f168201915b50505050508152602001600882018054806020026020016040519081016040528092919081815260200182805480156114d457602002820191906000526020600020905b81546001600160a01b031681526001909101906020018083116114b6575b5050505050815260200160098201805480602002602001604051908101604052809291908181526020016000905b828210156115ae5783829060005260206000200180546115219061264f565b80601f016020809104026020016040519081016040528092919081815260200182805461154d9061264f565b801561159a5780601f1061156f5761010080835404028352916020019161159a565b820191906000526020600020905b81548152906001019060200180831161157d57829003601f168201915b505050505081526020019060010190611502565b50505050815250508486815181106115c8576115c861268a565b60209081029190910101526115de60018661261c565b9450505080806115ed90612634565b915050611140565b606060026000838152602001908152602001600020805480602002602001604051908101604052809291908181526020016000905b828210156117265760008481526020908190206040805160a0810182526005860290920180546001600160a01b03168352600181015493830193909352600283015460ff169082015260038201805491929160608401919061168b9061264f565b80601f01602080910402602001604051908101604052809291908181526020018280546116b79061264f565b80156117045780601f106116d957610100808354040283529160200191611704565b820191906000526020600020905b8154815290600101906020018083116116e757829003601f168201915b505050505081526020016004820154815250508152602001906001019061162a565b505050509050919050565b60008087116117825760405162461bcd60e51b815260206004820152601d60248201527f5072696365206d7573742062652067726561746572207468616e20302e000000604482015260640161105b565b600180546000918261179383612634565b909155506000818152602081815260409091208281556001810180546001600160a01b0319166001600160a01b038e16179055600281018b90558951929350916117e5916003840191908b0190611e7a565b5086516117fb90600483019060208a0190611e7a565b5085516118119060058301906020890190611e7a565b5084516118279060068301906020880190611e7a565b50835161183d9060078301906020870190611e7a565b50896001600160a01b0316827f23fb658c1698b92f5fe511a079c17ecf7965cbc3f1b873328c67e2c3c0820f1f8b60405161187a91815260200190565b60405180910390a36001805461189091906126a0565b9a9950505050505050505050565b60008281526020819052604090206002015434908110156118f75760405162461bcd60e51b815260206004820152601360248201527224b739bab33334b1b4b2b73a10333ab732399760691b604482015260640161105b565b600083815260208190526040808220600181015491519092916001600160a01b03169084908381818185875af1925050503d8060008114611954576040519150601f19603f3d011682016040523d82523d6000602084013e611959565b606091505b5050905080156119bb576001820180546001600160a01b0319166001600160a01b038616908117909155604051848152819087907fddd64180d9701c7ede08673ac8106484ff983a472929330d4fbde4e35d65cb069060200160405180910390a45b5050505050565b60008080805b600554811015611a425760006119df82600161261c565b60008181526004602052604090206002015490915015611a2f5760008181526004602052604081206002810154600190910154611a1c91906126b7565b905084811115611a2d578094508193505b505b5080611a3a81612634565b9150506119c8565b5092915050565b6000838152600260205260408120805484908110611a6957611a6961268a565b90600052602060002090600502019050806004016000815480929190611a8e90612634565b9190505550816001600160a01b031683857fc58deae63c2d94e1502a392380f59901dc4cd3c3bbc40308b6189decf09671d58460040154604051611ad491815260200190565b60405180910390a450505050565b60018460ff1610158015611afa575060058460ff1611155b611b465760405162461bcd60e51b815260206004820152601f60248201527f526174696e67206d757374206265206265747765656e203120616e6420352e00604482015260640161105b565b6000858152602081815260408220600881018054600180820183559185528385200180546001600160a01b0319166001600160a01b0387161790556009820180549182018155845291909220611b9e91018585611efe565b50600260008781526020019081526020016000206040518060a00160405280846001600160a01b031681526020018881526020018760ff16815260200186868080601f0160208091040260200160405190810160405280939291908181526020018383808284376000920182905250938552505050602091820181905283546001808201865594825290829020835160059092020180546001600160a01b0319166001600160a01b039092169190911781558282015193810193909355604082015160028401805460ff191660ff90921691909117905560608201518051929392611c8f9260038501920190611e7a565b50608091909101516004918201556001600160a01b0383166000908152600360209081526040808320805460018181018355918552838520018b90558a8452939091528120909101805460ff88169290611cea90849061261c565b90915550506000868152600460205260408120600201805491611d0c83612634565b9190505550816001600160a01b0316867f4a7905ef60a1bc6706f11a56f05a4ebb480a37effdcaaba357946727b7aa0743878787604051611d4f939291906126d9565b60405180910390a360058054906000611d6783612634565b9190505550505050505050565b60008281526020819052604090206001810154606091906001600160a01b03868116911614611ddc5760405162461bcd60e51b81526020600482015260146024820152732cb7ba9030b932903737ba1030b71037bbb732b960611b604482015260640161105b565b6002018290555060408051808201909152601e81527f596f75722050726f70657274792050726963652049732055706461746564000060208201529392505050565b6040518061014001604052806000815260200160006001600160a01b0316815260200160008152602001606081526020016060815260200160608152602001606081526020016060815260200160608152602001606081525090565b828054611e869061264f565b90600052602060002090601f016020900481019282611ea85760008555611eee565b82601f10611ec157805160ff1916838001178555611eee565b82800160010185558215611eee579182015b82811115611eee578251825591602001919060010190611ed3565b50611efa929150611f72565b5090565b828054611f0a9061264f565b90600052602060002090601f016020900481019282611f2c5760008555611eee565b82601f10611f455782800160ff19823516178555611eee565b82800160010185558215611eee579182015b82811115611eee578235825591602001919060010190611f57565b5b80821115611efa5760008155600101611f73565b80356001600160a01b0381168114611f9e57600080fd5b919050565b600060208284031215611fb557600080fd5b611fbe82611f87565b9392505050565b6000815180845260005b81811015611feb57602081850181015186830182015201611fcf565b81811115611ffd576000602083870101525b50601f01601f19169290920160200192915050565b600081518084526020808501945080840160005b8381101561204b5781516001600160a01b031687529582019590820190600101612026565b509495945050505050565b600081518084526020808501808196508360051b8101915082860160005b8581101561209e57828403895261208c848351611fc5565b98850198935090840190600101612074565b5091979650505050505050565b60006020808301818452808551808352604092508286019150828160051b87010184880160005b838110156121da57888303603f19018552815180518452878101516001600160a01b0381168986015261014090508782015188860152606080830151828288015261211f83880182611fc5565b925050506080808301518683038288015261213a8382611fc5565b9250505060a080830151868303828801526121558382611fc5565b9250505060c080830151868303828801526121708382611fc5565b9250505060e0808301518683038288015261218b8382611fc5565b9250505061010080830151868303828801526121a78382612012565b9250505061012080830151925085820381870152506121c68183612056565b9689019694505050908601906001016120d2565b509098975050505050505050565b60006020808301818452808551808352604092508286019150828160051b87010184880160005b838110156121da57888303603f19018552815180516001600160a01b0316845287810151888501528681015160ff168785015260608082015160a0828701819052919061225e83880182611fc5565b608094850151979094019690965250509487019492509086019060010161220f565b60006020828403121561229257600080fd5b5035919050565b8881526001600160a01b038816602082015260408101879052610100606082018190526000906122cb83820189611fc5565b905082810360808401526122df8188611fc5565b905082810360a08401526122f38187611fc5565b905082810360c08401526123078186611fc5565b905082810360e084015261231b8185611fc5565b9b9a5050505050505050505050565b634e487b7160e01b600052604160045260246000fd5b600082601f83011261235157600080fd5b813567ffffffffffffffff8082111561236c5761236c61232a565b604051601f8301601f19908116603f011681019082821181831017156123945761239461232a565b816040528381528660208588010111156123ad57600080fd5b836020870160208301376000602085830101528094505050505092915050565b600080600080600080600060e0888a0312156123e857600080fd5b6123f188611f87565b965060208801359550604088013567ffffffffffffffff8082111561241557600080fd5b6124218b838c01612340565b965060608a013591508082111561243757600080fd5b6124438b838c01612340565b955060808a013591508082111561245957600080fd5b6124658b838c01612340565b945060a08a013591508082111561247b57600080fd5b6124878b838c01612340565b935060c08a013591508082111561249d57600080fd5b506124aa8a828b01612340565b91505092959891949750929550565b600080604083850312156124cc57600080fd5b823591506124dc60208401611f87565b90509250929050565b6000806000606084860312156124fa57600080fd5b833592506020840135915061251160408501611f87565b90509250925092565b60008060008060006080868803121561253257600080fd5b85359450602086013560ff8116811461254a57600080fd5b9350604086013567ffffffffffffffff8082111561256757600080fd5b818801915088601f83011261257b57600080fd5b81358181111561258a57600080fd5b89602082850101111561259c57600080fd5b6020830195508094505050506125b460608701611f87565b90509295509295909350565b6000806000606084860312156125d557600080fd5b6125de84611f87565b95602085013595506040909401359392505050565b602081526000611fbe6020830184611fc5565b634e487b7160e01b600052601160045260246000fd5b6000821982111561262f5761262f612606565b500190565b600060001982141561264857612648612606565b5060010190565b600181811c9082168061266357607f821691505b6020821081141561268457634e487b7160e01b600052602260045260246000fd5b50919050565b634e487b7160e01b600052603260045260246000fd5b6000828210156126b2576126b2612606565b500390565b6000826126d457634e487b7160e01b600052601260045260246000fd5b500490565b60ff8416815260406020820152816040820152818360608301376000818301606090810191909152601f909201601f191601019291505056fea26469706673582212209e76b36d5298c5386a25c9b3b9ec18ce5d74daf65f494d290cc01265e399f54464736f6c63430008090033",
  "linkReferences": {},
  "deployedLinkReferences": {}
}