{
  "_format": "hh-sol-artifact-1",
  "contractName": "RealEstate",
  "sourceName": "contracts/RealState.sol",
  "abi": [
    {
      "anonymous": false,
      "inputs": [
        {
          "indexed": true,
          "internalType": "uint256",
          "name": "id",
          "type": "uint256"
        },
        {
          "indexed": true,
          "internalType": "address",
          "name": "owner",
          "type": "address"
        },
        {
          "indexed": false,
          "internalType": "uint256",
          "name": "price",
          "type": "uint256"
        }
      ],
      "name": "PropertyListed",
      "type": "event"
    },
    {
      "anonymous": false,
      "inputs": [
        {
          "indexed": true,
          "internalType": "uint256",
          "name": "id",
          "type": "uint256"
        },
        {
          "indexed": true,
          "internalType": "address",
          "name": "oldOwner",
          "type": "address"
        },
        {
          "indexed": true,
          "internalType": "address",
          "name": "newOwner",
          "type": "address"
        },
        {
          "indexed": false,
          "internalType": "uint256",
          "name": "price",
          "type": "uint256"
        }
      ],
      "name": "PropertyResold",
      "type": "event"
    },
    {
      "anonymous": false,
      "inputs": [
        {
          "indexed": true,
          "internalType": "uint256",
          "name": "id",
          "type": "uint256"
        },
        {
          "indexed": true,
          "internalType": "address",
          "name": "oldOwner",
          "type": "address"
        },
        {
          "indexed": true,
          "internalType": "address",
          "name": "newOwner",
          "type": "address"
        },
        {
          "indexed": false,
          "internalType": "uint256",
          "name": "price",
          "type": "uint256"
        }
      ],
      "name": "PropertySold",
      "type": "event"
    },
    {
      "anonymous": false,
      "inputs": [
        {
          "indexed": true,
          "internalType": "uint256",
          "name": "productId",
          "type": "uint256"
        },
        {
          "indexed": true,
          "internalType": "address",
          "name": "reviewer",
          "type": "address"
        },
        {
          "indexed": false,
          "internalType": "uint8",
          "name": "rating",
          "type": "uint8"
        },
        {
          "indexed": false,
          "internalType": "string",
          "name": "comment",
          "type": "string"
        }
      ],
      "name": "ReviewAdded",
      "type": "event"
    },
    {
      "anonymous": false,
      "inputs": [
        {
          "indexed": true,
          "internalType": "uint256",
          "name": "productId",
          "type": "uint256"
        },
        {
          "indexed": true,
          "internalType": "uint256",
          "name": "reviewIndex",
          "type": "uint256"
        },
        {
          "indexed": true,
          "internalType": "address",
          "name": "liker",
          "type": "address"
        },
        {
          "indexed": false,
          "internalType": "uint256",
          "name": "likes",
          "type": "uint256"
        }
      ],
      "name": "ReviewLiked",
      "type": "event"
    },
    {
      "inputs": [
        {
          "internalType": "uint256",
          "name": "productId",
          "type": "uint256"
        },
        {
          "internalType": "uint8",
          "name": "rating",
          "type": "uint8"
        },
        {
          "internalType": "string",
          "name": "comment",
          "type": "string"
        },
        {
          "internalType": "address",
          "name": "user",
          "type": "address"
        }
      ],
      "name": "addReview",
      "outputs": [],
      "stateMutability": "nonpayable",
      "type": "function"
    },
    {
      "inputs": [
        {
          "internalType": "uint256",
          "name": "id",
          "type": "uint256"
        },
        {
          "internalType": "address",
          "name": "buyer",
          "type": "address"
        }
      ],
      "name": "buyProperty",
      "outputs": [],
      "stateMutability": "payable",
      "type": "function"
    },
    {
      "inputs": [],
      "name": "getAllProperties",
      "outputs": [
        {
          "components": [
            {
              "internalType": "uint256",
              "name": "productID",
              "type": "uint256"
            },
            {
              "internalType": "address",
              "name": "owner",
              "type": "address"
            },
            {
              "internalType": "uint256",
              "name": "price",
              "type": "uint256"
            },
            {
              "internalType": "string",
              "name": "propertyTitle",
              "type": "string"
            },
            {
              "internalType": "string",
              "name": "category",
              "type": "string"
            },
            {
              "internalType": "string",
              "name": "images",
              "type": "string"
            },
            {
              "internalType": "string",
              "name": "propertyAddress",
              "type": "string"
            },
            {
              "internalType": "string",
              "name": "description",
              "type": "string"
            },
            {
              "internalType": "address[]",
              "name": "reviewers",
              "type": "address[]"
            },
            {
              "internalType": "string[]",
              "name": "reviews",
              "type": "string[]"
            }
          ],
          "internalType": "struct RealEstate.Property[]",
          "name": "",
          "type": "tuple[]"
        }
      ],
      "stateMutability": "view",
      "type": "function"
    },
    {
      "inputs": [],
      "name": "getHighestRatedProduct",
      "outputs": [
        {
          "internalType": "uint256",
          "name": "",
          "type": "uint256"
        }
      ],
      "stateMutability": "view",
      "type": "function"
    },
    {
      "inputs": [],
      "name": "getListingPrice",
      "outputs": [
        {
          "internalType": "uint256",
          "name": "",
          "type": "uint256"
        }
      ],
      "stateMutability": "view",
      "type": "function"
    },
    {
      "inputs": [
        {
          "internalType": "uint256",
          "name": "productId",
          "type": "uint256"
        }
      ],
      "name": "getProductReviews",
      "outputs": [
        {
          "components": [
            {
              "internalType": "address",
              "name": "reviewer",
              "type": "address"
            },
            {
              "internalType": "uint256",
              "name": "productId",
              "type": "uint256"
            },
            {
              "internalType": "uint8",
              "name": "rating",
              "type": "uint8"
            },
            {
              "internalType": "string",
              "name": "comment",
              "type": "string"
            },
            {
              "internalType": "uint256",
              "name": "likes",
              "type": "uint256"
            },
            {
              "internalType": "uint256",
              "name": "reviewIndex",
              "type": "uint256"
            }
          ],
          "internalType": "struct RealEstate.Review[]",
          "name": "",
          "type": "tuple[]"
        }
      ],
      "stateMutability": "view",
      "type": "function"
    },
    {
      "inputs": [
        {
          "internalType": "uint256",
          "name": "id",
          "type": "uint256"
        }
      ],
      "name": "getProperty",
      "outputs": [
        {
          "internalType": "uint256",
          "name": "",
          "type": "uint256"
        },
        {
          "internalType": "address",
          "name": "",
          "type": "address"
        },
        {
          "internalType": "uint256",
          "name": "",
          "type": "uint256"
        },
        {
          "internalType": "string",
          "name": "",
          "type": "string"
        },
        {
          "internalType": "string",
          "name": "",
          "type": "string"
        },
        {
          "internalType": "string",
          "name": "",
          "type": "string"
        },
        {
          "internalType": "string",
          "name": "",
          "type": "string"
        },
        {
          "internalType": "string",
          "name": "",
          "type": "string"
        },
        {
          "internalType": "address[]",
          "name": "",
          "type": "address[]"
        },
        {
          "internalType": "string[]",
          "name": "",
          "type": "string[]"
        }
      ],
      "stateMutability": "view",
      "type": "function"
    },
    {
      "inputs": [
        {
          "internalType": "address",
          "name": "user",
          "type": "address"
        }
      ],
      "name": "getUserProperties",
      "outputs": [
        {
          "components": [
            {
              "internalType": "uint256",
              "name": "productID",
              "type": "uint256"
            },
            {
              "internalType": "address",
              "name": "owner",
              "type": "address"
            },
            {
              "internalType": "uint256",
              "name": "price",
              "type": "uint256"
            },
            {
              "internalType": "string",
              "name": "propertyTitle",
              "type": "string"
            },
            {
              "internalType": "string",
              "name": "category",
              "type": "string"
            },
            {
              "internalType": "string",
              "name": "images",
              "type": "string"
            },
            {
              "internalType": "string",
              "name": "propertyAddress",
              "type": "string"
            },
            {
              "internalType": "string",
              "name": "description",
              "type": "string"
            },
            {
              "internalType": "address[]",
              "name": "reviewers",
              "type": "address[]"
            },
            {
              "internalType": "string[]",
              "name": "reviews",
              "type": "string[]"
            }
          ],
          "internalType": "struct RealEstate.Property[]",
          "name": "",
          "type": "tuple[]"
        }
      ],
      "stateMutability": "view",
      "type": "function"
    },
    {
      "inputs": [
        {
          "internalType": "address",
          "name": "user",
          "type": "address"
        }
      ],
      "name": "getUserReviews",
      "outputs": [
        {
          "components": [
            {
              "internalType": "address",
              "name": "reviewer",
              "type": "address"
            },
            {
              "internalType": "uint256",
              "name": "productId",
              "type": "uint256"
            },
            {
              "internalType": "uint8",
              "name": "rating",
              "type": "uint8"
            },
            {
              "internalType": "string",
              "name": "comment",
              "type": "string"
            },
            {
              "internalType": "uint256",
              "name": "likes",
              "type": "uint256"
            },
            {
              "internalType": "uint256",
              "name": "reviewIndex",
              "type": "uint256"
            }
          ],
          "internalType": "struct RealEstate.Review[]",
          "name": "",
          "type": "tuple[]"
        }
      ],
      "stateMutability": "view",
      "type": "function"
    },
    {
      "inputs": [
        {
          "internalType": "uint256",
          "name": "productId",
          "type": "uint256"
        },
        {
          "internalType": "uint256",
          "name": "reviewIndex",
          "type": "uint256"
        },
        {
          "internalType": "address",
          "name": "user",
          "type": "address"
        }
      ],
      "name": "likeReview",
      "outputs": [],
      "stateMutability": "nonpayable",
      "type": "function"
    },
    {
      "inputs": [
        {
          "internalType": "address",
          "name": "owner",
          "type": "address"
        },
        {
          "internalType": "uint256",
          "name": "price",
          "type": "uint256"
        },
        {
          "internalType": "string",
          "name": "_propertyTitle",
          "type": "string"
        },
        {
          "internalType": "string",
          "name": "_category",
          "type": "string"
        },
        {
          "internalType": "string",
          "name": "_images",
          "type": "string"
        },
        {
          "internalType": "string",
          "name": "_propertyAddress",
          "type": "string"
        },
        {
          "internalType": "string",
          "name": "_description",
          "type": "string"
        }
      ],
      "name": "listProperty",
      "outputs": [
        {
          "internalType": "uint256",
          "name": "",
          "type": "uint256"
        },
        {
          "internalType": "string",
          "name": "",
          "type": "string"
        },
        {
          "internalType": "string",
          "name": "",
          "type": "string"
        },
        {
          "internalType": "string",
          "name": "",
          "type": "string"
        },
        {
          "internalType": "string",
          "name": "",
          "type": "string"
        }
      ],
      "stateMutability": "nonpayable",
      "type": "function"
    },
    {
      "inputs": [],
      "name": "listingPrice",
      "outputs": [
        {
          "internalType": "uint256",
          "name": "",
          "type": "uint256"
        }
      ],
      "stateMutability": "view",
      "type": "function"
    },
    {
      "inputs": [],
      "name": "propertyIndex",
      "outputs": [
        {
          "internalType": "uint256",
          "name": "",
          "type": "uint256"
        }
      ],
      "stateMutability": "view",
      "type": "function"
    },
    {
      "inputs": [],
      "name": "reviewsCounter",
      "outputs": [
        {
          "internalType": "uint256",
          "name": "",
          "type": "uint256"
        }
      ],
      "stateMutability": "view",
      "type": "function"
    },
    {
      "inputs": [
        {
          "internalType": "uint256",
          "name": "_listingPrice",
          "type": "uint256"
        },
        {
          "internalType": "address",
          "name": "owner",
          "type": "address"
        }
      ],
      "name": "updateListingPrice",
      "outputs": [],
      "stateMutability": "payable",
      "type": "function"
    },
    {
      "inputs": [
        {
          "internalType": "address",
          "name": "owner",
          "type": "address"
        },
        {
          "internalType": "uint256",
          "name": "productId",
          "type": "uint256"
        },
        {
          "internalType": "uint256",
          "name": "price",
          "type": "uint256"
        }
      ],
      "name": "updatePrice",
      "outputs": [
        {
          "internalType": "string",
          "name": "",
          "type": "string"
        }
      ],
      "stateMutability": "nonpayable",
      "type": "function"
    },
    {
      "inputs": [
        {
          "internalType": "address",
          "name": "owner",
          "type": "address"
        },
        {
          "internalType": "uint256",
          "name": "productId",
          "type": "uint256"
        },
        {
          "internalType": "string",
          "name": "_propertyTitle",
          "type": "string"
        },
        {
          "internalType": "string",
          "name": "_category",
          "type": "string"
        },
        {
          "internalType": "string",
          "name": "_images",
          "type": "string"
        },
        {
          "internalType": "string",
          "name": "_propertyAddress",
          "type": "string"
        },
        {
          "internalType": "string",
          "name": "_description",
          "type": "string"
        }
      ],
      "name": "updateProperty",
      "outputs": [
        {
          "internalType": "uint256",
          "name": "",
          "type": "uint256"
        },
        {
          "internalType": "string",
          "name": "",
          "type": "string"
        },
        {
          "internalType": "string",
          "name": "",
          "type": "string"
        },
        {
          "internalType": "string",
          "name": "",
          "type": "string"
        },
        {
          "internalType": "string",
          "name": "",
          "type": "string"
        },
        {
          "internalType": "string",
          "name": "",
          "type": "string"
        }
      ],
      "stateMutability": "nonpayable",
      "type": "function"
    }
  ],
  "bytecode": "0x6080604052600080546001600160a01b03191673b309098bcb51e5c687a16fa41bd6055f47c9ebb01790556658d15e1762800060015534801561004157600080fd5b50612ada806100516000396000f3fe6080604052600436106100fe5760003560e01c806380cad5a611610095578063c78f19f911610064578063c78f19f9146102a6578063dc035e6d146102bc578063e2fc6b95146102dc578063e57d6fb7146102fc578063f56720b51461032957600080fd5b806380cad5a614610253578063844ce562146102685780639e92a6941461027e578063a3007b1f1461029157600080fd5b80633b3bfa15116100d15780633b3bfa15146101bb5780633d51402c146101ed57806346a4237b14610202578063707893081461022257600080fd5b8063060a3e611461010357806312e855851461013957806318d0e8b21461015857806332665ffb14610185575b600080fd5b34801561010f57600080fd5b5061012361011e3660046121c7565b61033f565b60405161013091906122d2565b60405180910390f35b34801561014557600080fd5b506001545b604051908152602001610130565b34801561016457600080fd5b506101786101733660046121c7565b610902565b604051610130919061240f565b34801561019157600080fd5b506101a56101a03660046124b0565b610bf6565b6040516101309a9998979695949392919061251e565b3480156101c757600080fd5b506101db6101d63660046126a3565b6110d7565b6040516101309695949392919061278f565b3480156101f957600080fd5b506101236111ce565b34801561020e57600080fd5b5061017861021d3660046124b0565b6116e2565b34801561022e57600080fd5b5061024261023d3660046126a3565b611828565b604051610130959493929190612803565b610266610261366004612862565b6119b6565b005b34801561027457600080fd5b5061014a60075481565b61026661028c366004612862565b611aaf565b34801561029d57600080fd5b5061014a611bd3565b3480156102b257600080fd5b5061014a60015481565b3480156102c857600080fd5b506102666102d736600461288e565b611c5a565b3480156102e857600080fd5b506102666102f73660046128c3565b611cf3565b34801561030857600080fd5b5061031c610317366004612969565b611f98565b604051610130919061299c565b34801561033557600080fd5b5061014a60035481565b600354606090600080805b838110156103ae576001600160a01b0386166002600061036b8460016129c5565b81526020810191909152604001600020600101546001600160a01b0316141561039c576103996001846129c5565b92505b806103a6816129dd565b91505061034a565b5060008267ffffffffffffffff8111156103ca576103ca612600565b60405190808252806020026020018201604052801561040357816020015b6103f0612042565b8152602001906001900390816103e85790505b50905060005b848110156108f8576001600160a01b0387166002600061042a8460016129c5565b81526020810191909152604001600020600101546001600160a01b031614156108e657600061045a8260016129c5565b6000818152600260208181526040928390208351610140810185528154815260018201546001600160a01b03169281019290925291820154928101929092526003810180549394509092839160608401916104b4906129f8565b80601f01602080910402602001604051908101604052809291908181526020018280546104e0906129f8565b801561052d5780601f106105025761010080835404028352916020019161052d565b820191906000526020600020905b81548152906001019060200180831161051057829003601f168201915b50505050508152602001600482018054610546906129f8565b80601f0160208091040260200160405190810160405280929190818152602001828054610572906129f8565b80156105bf5780601f10610594576101008083540402835291602001916105bf565b820191906000526020600020905b8154815290600101906020018083116105a257829003601f168201915b505050505081526020016005820180546105d8906129f8565b80601f0160208091040260200160405190810160405280929190818152602001828054610604906129f8565b80156106515780601f1061062657610100808354040283529160200191610651565b820191906000526020600020905b81548152906001019060200180831161063457829003601f168201915b5050505050815260200160068201805461066a906129f8565b80601f0160208091040260200160405190810160405280929190818152602001828054610696906129f8565b80156106e35780601f106106b8576101008083540402835291602001916106e3565b820191906000526020600020905b8154815290600101906020018083116106c657829003601f168201915b505050505081526020016007820180546106fc906129f8565b80601f0160208091040260200160405190810160405280929190818152602001828054610728906129f8565b80156107755780601f1061074a57610100808354040283529160200191610775565b820191906000526020600020905b81548152906001019060200180831161075857829003601f168201915b50505050508152602001600882018054806020026020016040519081016040528092919081815260200182805480156107d757602002820191906000526020600020905b81546001600160a01b031681526001909101906020018083116107b9575b5050505050815260200160098201805480602002602001604051908101604052809291908181526020016000905b828210156108b1578382906000526020600020018054610824906129f8565b80601f0160208091040260200160405190810160405280929190818152602001828054610850906129f8565b801561089d5780601f106108725761010080835404028352916020019161089d565b820191906000526020600020905b81548152906001019060200180831161088057829003601f168201915b505050505081526020019060010190610805565b50505050815250508486815181106108cb576108cb612a33565b60209081029190910101526108e16001866129c5565b945050505b806108f0816129dd565b915050610409565b5095945050505050565b6001600160a01b0381166000908152600560205260408120546060918167ffffffffffffffff81111561093757610937612600565b6040519080825280602002602001820160405280156109ad57816020015b61099a6040518060c0016040528060006001600160a01b0316815260200160008152602001600060ff1681526020016060815260200160008152602001600081525090565b8152602001906001900390816109555790505b50905060005b6001600160a01b038516600090815260056020526040902054811015610bee576001600160a01b03851660009081526005602052604081208054839081106109fd576109fd612a33565b90600052602060002001549050600060046000838152602001908152602001600020805480602002602001604051908101604052809291908181526020016000905b82821015610b455760008481526020908190206040805160c0810182526006860290920180546001600160a01b03168352600181015493830193909352600283015460ff1690820152600382018054919291606084019190610aa0906129f8565b80601f0160208091040260200160405190810160405280929190818152602001828054610acc906129f8565b8015610b195780601f10610aee57610100808354040283529160200191610b19565b820191906000526020600020905b815481529060010190602001808311610afc57829003601f168201915b505050505081526020016004820154815260200160058201548152505081526020019060010190610a3f565b50505050905060005b8151811015610bd857876001600160a01b0316828281518110610b7357610b73612a33565b6020026020010151600001516001600160a01b03161415610bc657818181518110610ba057610ba0612a33565b6020026020010151858581518110610bba57610bba612a33565b60200260200101819052505b80610bd0816129dd565b915050610b4e565b5050508080610be6906129dd565b9150506109b3565b509392505050565b600080600060608060608060608060606000600260008d815260200190815260200160002060405180610140016040529081600082015481526020016001820160009054906101000a90046001600160a01b03166001600160a01b03166001600160a01b0316815260200160028201548152602001600382018054610c7a906129f8565b80601f0160208091040260200160405190810160405280929190818152602001828054610ca6906129f8565b8015610cf35780601f10610cc857610100808354040283529160200191610cf3565b820191906000526020600020905b815481529060010190602001808311610cd657829003601f168201915b50505050508152602001600482018054610d0c906129f8565b80601f0160208091040260200160405190810160405280929190818152602001828054610d38906129f8565b8015610d855780601f10610d5a57610100808354040283529160200191610d85565b820191906000526020600020905b815481529060010190602001808311610d6857829003601f168201915b50505050508152602001600582018054610d9e906129f8565b80601f0160208091040260200160405190810160405280929190818152602001828054610dca906129f8565b8015610e175780601f10610dec57610100808354040283529160200191610e17565b820191906000526020600020905b815481529060010190602001808311610dfa57829003601f168201915b50505050508152602001600682018054610e30906129f8565b80601f0160208091040260200160405190810160405280929190818152602001828054610e5c906129f8565b8015610ea95780601f10610e7e57610100808354040283529160200191610ea9565b820191906000526020600020905b815481529060010190602001808311610e8c57829003601f168201915b50505050508152602001600782018054610ec2906129f8565b80601f0160208091040260200160405190810160405280929190818152602001828054610eee906129f8565b8015610f3b5780601f10610f1057610100808354040283529160200191610f3b565b820191906000526020600020905b815481529060010190602001808311610f1e57829003601f168201915b5050505050815260200160088201805480602002602001604051908101604052809291908181526020018280548015610f9d57602002820191906000526020600020905b81546001600160a01b03168152600190910190602001808311610f7f575b5050505050815260200160098201805480602002602001604051908101604052809291908181526020016000905b82821015611077578382906000526020600020018054610fea906129f8565b80601f0160208091040260200160405190810160405280929190818152602001828054611016906129f8565b80156110635780601f1061103857610100808354040283529160200191611063565b820191906000526020600020905b81548152906001019060200180831161104657829003601f168201915b505050505081526020019060010190610fcb565b50505050815250509050806000015181602001518260400151836060015184608001518560a001518660c001518760e001518861010001518961012001519a509a509a509a509a509a509a509a509a509a50509193959799509193959799565b600086815260026020526040812060018101546060918291829182918291906001600160a01b038f811691161461114c5760405162461bcd60e51b81526020600482015260146024820152732cb7ba9030b932903737ba1030b71037bbb732b960611b60448201526064015b60405180910390fd5b8b5161116190600383019060208f019061209e565b508a5161117790600483019060208e019061209e565b50895161118d90600583019060208d019061209e565b5088516111a390600683019060208c019061209e565b5087516111b990600783019060208b019061209e565b509b9d9a9c50959a5096989596505050505050565b6003546060906000808267ffffffffffffffff8111156111f0576111f0612600565b60405190808252806020026020018201604052801561122957816020015b611216612042565b81526020019060019003908161120e5790505b50905060005b83811015610bee5760006112448260016129c5565b6000818152600260208181526040928390208351610140810185528154815260018201546001600160a01b031692810192909252918201549281019290925260038101805493945090928391606084019161129e906129f8565b80601f01602080910402602001604051908101604052809291908181526020018280546112ca906129f8565b80156113175780601f106112ec57610100808354040283529160200191611317565b820191906000526020600020905b8154815290600101906020018083116112fa57829003601f168201915b50505050508152602001600482018054611330906129f8565b80601f016020809104026020016040519081016040528092919081815260200182805461135c906129f8565b80156113a95780601f1061137e576101008083540402835291602001916113a9565b820191906000526020600020905b81548152906001019060200180831161138c57829003601f168201915b505050505081526020016005820180546113c2906129f8565b80601f01602080910402602001604051908101604052809291908181526020018280546113ee906129f8565b801561143b5780601f106114105761010080835404028352916020019161143b565b820191906000526020600020905b81548152906001019060200180831161141e57829003601f168201915b50505050508152602001600682018054611454906129f8565b80601f0160208091040260200160405190810160405280929190818152602001828054611480906129f8565b80156114cd5780601f106114a2576101008083540402835291602001916114cd565b820191906000526020600020905b8154815290600101906020018083116114b057829003601f168201915b505050505081526020016007820180546114e6906129f8565b80601f0160208091040260200160405190810160405280929190818152602001828054611512906129f8565b801561155f5780601f106115345761010080835404028352916020019161155f565b820191906000526020600020905b81548152906001019060200180831161154257829003601f168201915b50505050508152602001600882018054806020026020016040519081016040528092919081815260200182805480156115c157602002820191906000526020600020905b81546001600160a01b031681526001909101906020018083116115a3575b5050505050815260200160098201805480602002602001604051908101604052809291908181526020016000905b8282101561169b57838290600052602060002001805461160e906129f8565b80601f016020809104026020016040519081016040528092919081815260200182805461163a906129f8565b80156116875780601f1061165c57610100808354040283529160200191611687565b820191906000526020600020905b81548152906001019060200180831161166a57829003601f168201915b5050505050815260200190600101906115ef565b50505050815250508486815181106116b5576116b5612a33565b60209081029190910101526116cb6001866129c5565b9450505080806116da906129dd565b91505061122f565b606060046000838152602001908152602001600020805480602002602001604051908101604052809291908181526020016000905b8282101561181d5760008481526020908190206040805160c0810182526006860290920180546001600160a01b03168352600181015493830193909352600283015460ff1690820152600382018054919291606084019190611778906129f8565b80601f01602080910402602001604051908101604052809291908181526020018280546117a4906129f8565b80156117f15780601f106117c6576101008083540402835291602001916117f1565b820191906000526020600020905b8154815290600101906020018083116117d457829003601f168201915b505050505081526020016004820154815260200160058201548152505081526020019060010190611717565b505050509050919050565b600060608060608060008b116118805760405162461bcd60e51b815260206004820152601d60248201527f5072696365206d7573742062652067726561746572207468616e20302e0000006044820152606401611143565b60038054906000611890836129dd565b91905055506000600354905060006002600083815260200190815260200160002090508181600001819055508d8160010160006101000a8154816001600160a01b0302191690836001600160a01b031602179055508c81600201819055508b81600301908051906020019061190692919061209e565b508a5161191c90600483019060208e019061209e565b50895161193290600583019060208d019061209e565b50885161194890600683019060208c019061209e565b50875161195e90600783019060208b019061209e565b508d6001600160a01b0316827f23fb658c1698b92f5fe511a079c17ecf7965cbc3f1b873328c67e2c3c0820f1f8f60405161199b91815260200190565b60405180910390a3509c999b50949950959795505050505050565b6000546001600160a01b03163314611a365760405162461bcd60e51b815260206004820152603760248201527f6f6e6c79206f776e6572206f662074686520636f6e74726163742063616e206360448201527f68616e676520746865206c697374696e672070726963650000000000000000006064820152608401611143565b6000546001600160a01b03828116911614611aa95760405162461bcd60e51b815260206004820152602d60248201527f4f6e6c7920636f6e7472616374206f776e65722063616e20757064617465206c60448201526c34b9ba34b73390383934b1b29760991b6064820152608401611143565b50600155565b6000828152600260208190526040909120015434908114611b085760405162461bcd60e51b815260206004820152601360248201527224b739bab33334b1b4b2b73a10333ab732399760691b6044820152606401611143565b600083815260026020526040808220600181015491519092916001600160a01b03169084908381818185875af1925050503d8060008114611b65576040519150601f19603f3d011682016040523d82523d6000602084013e611b6a565b606091505b505090508015611bcc576001820180546001600160a01b0319166001600160a01b038616908117909155604051848152819087907fddd64180d9701c7ede08673ac8106484ff983a472929330d4fbde4e35d65cb069060200160405180910390a45b5050505050565b60008080805b600754811015611c53576000611bf08260016129c5565b60008181526006602052604090206002015490915015611c405760008181526006602052604081206002810154600190910154611c2d9190612a49565b905084811115611c3e578094508193505b505b5080611c4b816129dd565b915050611bd9565b5092915050565b6000838152600460205260408120805484908110611c7a57611c7a612a33565b90600052602060002090600602019050806004016000815480929190611c9f906129dd565b9190505550816001600160a01b031683857fc58deae63c2d94e1502a392380f59901dc4cd3c3bbc40308b6189decf09671d58460040154604051611ce591815260200190565b60405180910390a450505050565b60018460ff1610158015611d0b575060058460ff1611155b611d575760405162461bcd60e51b815260206004820152601f60248201527f526174696e67206d757374206265206265747765656e203120616e6420352e006044820152606401611143565b60008581526002602090815260408220600881018054600180820183559185528385200180546001600160a01b0319166001600160a01b0387161790556009820180549182018155845291909220611db191018585612122565b50600460008781526020019081526020016000206040518060c00160405280846001600160a01b031681526020018881526020018760ff16815260200186868080601f0160208091040260200160405190810160405280939291908181526020018383808284376000920182905250938552505050602080830182905260075460409384015284546001808201875595835291819020845160069093020180546001600160a01b0319166001600160a01b0390931692909217825583810151948201949094559082015160028201805460ff191660ff9092169190911790556060820151805192939192611eab926003850192019061209e565b506080820151600482015560a0909101516005918201556001600160a01b038316600090815260209182526040808220805460018181018355918452848420018a905589835260069093528120909101805460ff88169290611f0e9084906129c5565b90915550506000868152600660205260408120600201805491611f30836129dd565b9190505550816001600160a01b0316867f4a7905ef60a1bc6706f11a56f05a4ebb480a37effdcaaba357946727b7aa0743878787604051611f7393929190612a6b565b60405180910390a360078054906000611f8b836129dd565b9190505550505050505050565b60008281526002602052604090206001810154606091906001600160a01b038681169116146120005760405162461bcd60e51b81526020600482015260146024820152732cb7ba9030b932903737ba1030b71037bbb732b960611b6044820152606401611143565b6002018290555060408051808201909152601e81527f596f75722050726f70657274792050726963652049732055706461746564000060208201529392505050565b6040518061014001604052806000815260200160006001600160a01b0316815260200160008152602001606081526020016060815260200160608152602001606081526020016060815260200160608152602001606081525090565b8280546120aa906129f8565b90600052602060002090601f0160209004810192826120cc5760008555612112565b82601f106120e557805160ff1916838001178555612112565b82800160010185558215612112579182015b828111156121125782518255916020019190600101906120f7565b5061211e929150612196565b5090565b82805461212e906129f8565b90600052602060002090601f0160209004810192826121505760008555612112565b82601f106121695782800160ff19823516178555612112565b82800160010185558215612112579182015b8281111561211257823582559160200191906001019061217b565b5b8082111561211e5760008155600101612197565b80356001600160a01b03811681146121c257600080fd5b919050565b6000602082840312156121d957600080fd5b6121e2826121ab565b9392505050565b6000815180845260005b8181101561220f576020818501810151868301820152016121f3565b81811115612221576000602083870101525b50601f01601f19169290920160200192915050565b600081518084526020808501945080840160005b8381101561226f5781516001600160a01b03168752958201959082019060010161224a565b509495945050505050565b600082825180855260208086019550808260051b84010181860160005b848110156122c557601f198684030189526122b38383516121e9565b98840198925090830190600101612297565b5090979650505050505050565b60006020808301818452808551808352604092508286019150828160051b87010184880160005b8381101561240157888303603f19018552815180518452878101516001600160a01b03811689860152610140905087820151888601526060808301518282880152612346838801826121e9565b925050506080808301518683038288015261236183826121e9565b9250505060a0808301518683038288015261237c83826121e9565b9250505060c0808301518683038288015261239783826121e9565b9250505060e080830151868303828801526123b283826121e9565b9250505061010080830151868303828801526123ce8382612236565b9250505061012080830151925085820381870152506123ed818361227a565b9689019694505050908601906001016122f9565b509098975050505050505050565b60006020808301818452808551808352604092508286019150828160051b87010184880160005b8381101561240157888303603f19018552815180516001600160a01b0316845287810151888501528681015160ff168785015260608082015160c08287018190529190612485838801826121e9565b6080858101519089015260a09485015194909701939093525050509386019390860190600101612436565b6000602082840312156124c257600080fd5b5035919050565b600081518084526020808501808196508360051b8101915082860160005b858110156125115782840389526124ff8483516121e9565b988501989350908401906001016124e7565b5091979650505050505050565b60006101408c8352602060018060a01b03808e16828601528c604086015282606086015261254e8386018d6121e9565b92508483036080860152612562838c6121e9565b925084830360a0860152612576838b6121e9565b925084830360c086015261258a838a6121e9565b925084830360e086015261259e83896121e9565b858103610100870152875180825283890194509083019060005b818110156125d65785518416835294840194918401916001016125b8565b50508581036101208701526125eb81886124c9565b9450505050509b9a5050505050505050505050565b634e487b7160e01b600052604160045260246000fd5b600082601f83011261262757600080fd5b813567ffffffffffffffff8082111561264257612642612600565b604051601f8301601f19908116603f0116810190828211818310171561266a5761266a612600565b8160405283815286602085880101111561268357600080fd5b836020870160208301376000602085830101528094505050505092915050565b600080600080600080600060e0888a0312156126be57600080fd5b6126c7886121ab565b965060208801359550604088013567ffffffffffffffff808211156126eb57600080fd5b6126f78b838c01612616565b965060608a013591508082111561270d57600080fd5b6127198b838c01612616565b955060808a013591508082111561272f57600080fd5b61273b8b838c01612616565b945060a08a013591508082111561275157600080fd5b61275d8b838c01612616565b935060c08a013591508082111561277357600080fd5b506127808a828b01612616565b91505092959891949750929550565b86815260c0602082015260006127a860c08301886121e9565b82810360408401526127ba81886121e9565b905082810360608401526127ce81876121e9565b905082810360808401526127e281866121e9565b905082810360a08401526127f681856121e9565b9998505050505050505050565b85815260a06020820152600061281c60a08301876121e9565b828103604084015261282e81876121e9565b9050828103606084015261284281866121e9565b9050828103608084015261285681856121e9565b98975050505050505050565b6000806040838503121561287557600080fd5b82359150612885602084016121ab565b90509250929050565b6000806000606084860312156128a357600080fd5b83359250602084013591506128ba604085016121ab565b90509250925092565b6000806000806000608086880312156128db57600080fd5b85359450602086013560ff811681146128f357600080fd5b9350604086013567ffffffffffffffff8082111561291057600080fd5b818801915088601f83011261292457600080fd5b81358181111561293357600080fd5b89602082850101111561294557600080fd5b60208301955080945050505061295d606087016121ab565b90509295509295909350565b60008060006060848603121561297e57600080fd5b612987846121ab565b95602085013595506040909401359392505050565b6020815260006121e260208301846121e9565b634e487b7160e01b600052601160045260246000fd5b600082198211156129d8576129d86129af565b500190565b60006000198214156129f1576129f16129af565b5060010190565b600181811c90821680612a0c57607f821691505b60208210811415612a2d57634e487b7160e01b600052602260045260246000fd5b50919050565b634e487b7160e01b600052603260045260246000fd5b600082612a6657634e487b7160e01b600052601260045260246000fd5b500490565b60ff8416815260406020820152816040820152818360608301376000818301606090810191909152601f909201601f191601019291505056fea2646970667358221220fc7d7d375ee562a0ba5767af27ca795821b20172747d8c51bdda58e025f75ecd64736f6c63430008090033",
  "linkReferences": {},
  "deployedLinkReferences": {}
}